:107800000C942A3C0C94473C0C94473C0C94473C09
:107810000C94473C0C94473C0C94473C0C94473CDC
:107820000C94473C0C94473C0C94473C0C94473CCC
:107830000C94473C0C94473C0C94473C0C94473CBC
:107840000C94473C0C94473C0C94473C0C94473CAC
:107850000C94473C11241FBECFE5D8E0DEBFCDBF5E
:1078600010E0A0E6B0E0E0E9FBE702C005900D9271
:10787000A036B107D9F710E0A0E6B0E001C01D9234
:10788000A036B107E1F70E94493C0C94C73D0C9427
:10789000003CFF920F931F93CF93DF93C19A0E94F6
:1078A0009D3DB19930C107B600FCFDCF99E084EC55
:1078B000E1E0F0E0082E90935700E895FF240E9445
:1078C000933D982F863631F48DE00E94983D71E00B
:1078D000F72EF5CF8F3449F5AEEEB3E00E94B33DFD
:1078E000802D0E94983DAFEEB3E00E94B33D802D05
:1078F0000E94983DA0EFB3E00E94B33D802D0E940E
:10790000983DA1EFB3E00E94B33D802D0E94983DC9
:10791000A2EFB3E00E94B33D802D0E94983DA3EFFB
:10792000B3E00E94B33D802DEBC08D3459F50E9429
:10793000933DAEEEB3E0082E0E94BB3D0E94933D06
:10794000AFEEB3E0082E0E94BB3D0E94933DA0EF36
:10795000B3E0082E0E94BB3D0E94933DA1EFB3E02F
:10796000082E0E94BB3D0E94933DA2EFB3E0082E7B
:107970000E94BB3D0E94933DA3EFB3E0082E0E94FE
:10798000BB3D9DCF853689F400E010E083E007B66B
:1079900000FCFDCFF80180935700E89500581F4F79
:1079A00098E70030190798F363C0813611F489E530
:1079B000A7C0813421F0853511F0873791F40E94FA
:1079C000933D6F2D0E94A23D082F0E94933D6F2D85
:1079D0000E94A23D1127102F00279927082B192B51
:1079E00047C08D36A1F48CE30030180720F08FE3F8
:1079F0000E94983D3DC007B600FCFDCF25E0C801C0
:107A0000880F991FFC0120935700E89531C08334FB
:107A1000D1F40E94933D6F2D0E94A23D9927982F8B
:107A20008827C82BD92B07B600FCFDCF21E0C80161
:107A3000880F991F0E01FC0120935700E89511242F
:107A40000F5F1F4F15C0833641F40E94933D6F2D89
:107A50000E94A23DC82FDD270BC0803549F08C3431
:107A600039F08857823010F0943521F40E94933D0C
:107A70008DE046C0903711F483E542C0943729F475
:107A80008FE70E94983D80E03BC0953471F407B6C3
:107A900000FCFDCF81E180935700E8958DE00E94C6
:107AA000983DE0E0F0E009950ACF933741F482E099
:107AB0000E94983D85E90E94983D8EE121C096354F
:107AC00029F481E30E94983D80E31AC09335A1F424
:107AD0008EE40E94983D85E40E94983D84E50E94D2
:107AE000983D8DE20E94983D89E40E94983D8FE286
:107AF0000E94983D8FE404C09B3109F4E0CE8FE3EF
:107B00000E94983DDCCE07B600FCFDCF81E180935A
:107B10005700E895E0E0F0E00995DF91CF911F91E3
:107B20000F91FF9008955F9BFECF8CB19927089528
:107B30008CB95E9BFECF5E9A089580E189B988E199
:107B40008AB90895982F662311F49927089582ED34
:107B50008927982F9295990F907E86958695869580
:107B6000892B99270895E199FECFBFBBAEBBE09A60
:107B700011960DB20895E199FECFBFBBAEBB0DBA11
:107B800011960FB6F894E29AE19A0FBE0895FFCFCE
:040000030000780081
:00000001FF
