:200000000C942A000C9447000C9447000C9447000C9447000C9447000C9447000C944900C3
:200020000C9447000C9447000C9447000C9447000C9447000C9428030C9447000C944700A4
:200040000C9447000C9447000C9447000C9447000C94470011241FBECFE5D8E0DEBFCDBF76
:2000600011E0A0E6B0E0E2EAF6E302C005900D92AC3BB107D9F715E0ACEBB1E001C01D92E2
:20008000A032B107E1F70E945A000C94501B0C9400001F920F920FB60F9211248F93809137
:2000A000BC0181608093BC018F910F900FBE0F901F9018950F931F93CF93DF9360E875E284
:2000C00080E090E00E94F9020E940B080E945E040E94D1120E94E4080E940F1382E00E941F
:2000E00020048BE08EBD88EA91E69BBD8ABD80E189BF8AB3807F8ABB8BB38F608BBB8FEF83
:2001000084BB8AB38F708ABB0EEE13E0D8010E94061B802D882309F048C0CFEED3E0DE01EC
:200120000E94061B802D823209F03FC0E0EFF3E0DF010E94061B802D893F09F036C061EFAA
:2001400073E0DB010E94061B802D813071F542EF53E0DA010E94061B802D8F3F31F123EF38
:2001600033E0D9010E94061B802D8F3FF1F0D8010E94061B802D982FDE010E94061B802D14
:20018000182FDF010E94061B802DE82FDB010E94061B802D682FDA010E94061B802D482F0C
:2001A000D9010E94061B802D26C090E0AEEEB3E0092E0E940E1B82E2AFEEB3E0082E0E9402
:2001C0000E1B89EFA0EFB3E0082E0E940E1B81E0A1EFB3E0082E0E940E1BA2EFB3E0092E7B
:2001E0000E940E1BA3EFB3E0082E0E940E1B40E061E0E9EF12E29093BE011093BF01E09329
:20020000C0016093C1014093C2018093C3012CEF33E0D9010E94061B802D882309F454C0C7
:20022000D9010E94061B802D8F3F09F44DC04DEF53E0DA010E94061B802D8F3F09F444C013
:20024000EEEFF3E0DF010E94061B802D8F3F09F43BC06FEF73E0DB010E94061B802D882330
:2002600099F1DB010E94061B802D8F3F69F1D9010E94061B802DDA010E94061B802DD90111
:200280000E94061B202DDA010E94061B402D9927D82FCC273327C22BD32BDF010E94061BA1
:2002A000802DDB010E94061B802DDF010E94061B202DDB010E94061B402D9927982F882713
:2002C0003327822B932B1CC080ECACEFB3E0082E0E940E1B88EAADEFB3E0082E0E940E1B40
:2002E00080E0AEEFB3E0082E0E940E1B8AE5AFEFB3E0082E0E940E1B80E09AE5C0ECD8EA7F
:20030000D093C302C093C2029093C5028093C40248EF53E0DA010E94061B802D882309F47E
:2003200039C06BEF73E0DB010E94061B802D8F3F89F1DA010E94061B802DE9EFF3E0DF01AD
:200340000E94061B802DDA010E94061B202DDF010E94061B402D9927F82FEE273327E22BCF
:20036000F32B4AEF53E0DA010E94061B802DDB010E94061B802DDA010E94061B202DDB0195
:200380000E94061B402D9927982F88273327822B932B1AC08FEFA8EFB3E0082E0E940E1BAF
:2003A000A9EFB3E0082E0E940E1BAAEFB3E0082E0E940E1B80E0ABEFB3E0082E0E940E1B56
:2003C0008FEF90E0EFEFFFEFF093BF02E093BE029093C1028093C00224EF33E0D9010E948F
:2003E000061B802D882309F454C0D9010E94061B802D8F3F09F44DC045EF53E0DA010E946D
:20040000061B802D8F3F09F45FCFE6EFF3E0DF010E94061B802D8F3F09F456CF67EF73E084
:20042000DB010E94061B802D882399F1DB010E94061B802D8F3F69F1D9010E94061B802D7D
:20044000DA010E94061B802DD9010E94061B202DDA010E94061B402D9927D82FCC27332748
:20046000C22BD32BDF010E94061B802DDB010E94061B802DDF010E94061B202DDB010E9487
:20048000061B402D9927982F88273327822B932B1CC080ECA4EFB3E0082E0E940E1B88EAF2
:2004A000A5EFB3E0082E0E940E1B80E0A6EFB3E0082E0E940E1B8EEFA7EFB3E0082E0E940D
:2004C0000E1B80E09EEFC0ECD8EAD093BB02C093BA029093BD028093BC02789486EC92E0C6
:2004E0000E9476079093500280934F02892B99F10091D2021091D30280E098E00E946A09FE
:200500000817190781F481E00E94820980914F0290915002892BF9F00E949F1160914F0293
:200520007091500214C00091D2021091D30286E098E00E946A090817190769F40E94F41084
:2005400060914F02709150026115710521F086EC92E00E94AA038091BC0180FF31C0F8940C
:200560008091BC018E7F8093BC017894C4E9D2E0D0935B02C0935A0282E00E948209809156
:200580004F0290915002892B51F00E949F1160914F027091500286EC92E00E94AA036C9785
:2005A000B2E0C034DB0721F780917100815080937100882329F40E94A51284E680937100D5
:2005C0008091300280FF8ACF80E690E00E941B0361E081E392E00E944414882321F483E630
:2005E00090E00E941B03809130028E7F8093300275CF9B01AC0188E98AB984E0220F331F0E
:20060000441F551F8A95D1F760E074E284EF90E00E94BA1A215029B9809130028B7F80937A
:2006200030020895982F8091300282FD03C05D9BFECF9CB90895CF93DF93EC0103C02196AD
:200640000E94120388818823D1F7DF91CF9108951F920F920FB60F9211241F932F933F93C7
:200660004F935F936F937F938F939F93AF93BF93EF93FF938091300282FD3EC01CB1812F59
:200680000E9412038091300280FF04C080913002826020C0183049F48091BD01882309F41C
:2006A00047C08091BD01815024C01D30B1F4E091BD01FF27E05DFD4F80818C3571F0E0914B
:2006C000BD01FF27EF5CFD4F10821092BD01809130028160809330022BC08091BD018D31CC
:2006E00038F58091BD01E82FFF27EF5CFD4F10838F5F8093BD011CC02091720030917300A5
:20070000809174009091750001972817390781F08CB1F9018193F0937300E0937200EE54CE
:20072000F24031F42C5130403093730020937200FF91EF91BF91AF919F918F917F916F911A
:200740005F914F913F912F911F910F900FBE0F901F901895EF92FF921F93CF93DF937C010D
:20076000EB0111E3C4988FE10E9413080E942908C49A83FF06C080E49CE90197F1F71150CD
:2007800088F7C4988FEB0E94130883E00E941308C49AC4988FE90E94130880E00E9413081B
:2007A000C49AC49882E40E94130880E00E941308C49AC49883E40E94130888E10E9413083B
:2007C000C49AC49886E40E9413088C2F0E941308C49AC49887E40E941308C050D84E8D2FEC
:2007E0009927C050D8410E941308C49AC4988AE70E94130880E00E941308BE01C7010E9425
:200800001908C49AC4988FE90E94130880E80E941308C49AC4988FEB0E94130880E80E94A8
:200820001308C49AC4988FE90E94130888E00E941308C49ADF91CF911F91FF90EF90089500
:200840001F93182FC4988FEB0E94130883E00E941308C49AC4988FE90E94130883E00E94F8
:200860001308C49A113031F4C49885E50E94130881E01FC0123031F4C49885E50E941308EC
:2008800082E017C0133031F4C49885E50E94130883E00FC0143031F4C49885E50E94130816
:2008A00084E007C0183041F4C49885E50E94130885E00E941308C49A1F9108951F9387B354
:2008C000806B87BB87B38B7B87BBC49A01C00000C4988DE10E9413080E942908C49A80FF13
:2008E000F6CFC4988FEF0E941308C49A80E49CE90197F1F7C4988FEB0E94130883E00E943D
:200900001308C49AC4988FE90E94130882E00E941308C49AC49884E50E94130880E00E94CC
:200920001308C49AC49886E50E94130880E00E941308C49AC49887E50E94130880E80E94B0
:200940001308C49AC4988FEB0E94130883E00E941308C49AC4988FE90E94130883E00E9477
:200960001308C49A01C00000C4988AE00E94130880E00E9413080E942908C49A80FDF3CF2D
:2009800001C00000C4988FEB0E94130883E00E941308C49AC4988FE90E94130882E00E94F0
:2009A0001308C49AC49884E50E94130880E00E941308C49AC49882E90E94130881E00E943A
:2009C0001308C49AC4988FEB0E94130883E00E941308C49AC4988FE90E94130883E00E94F7
:2009E0001308C49A01C00000C4988AE00E94130880E00E9413080E942908C49A80FDF3CFAD
:200A0000C4988FEB0E94130883E00E941308C49AC4988FE90E94130882E00E941308C49AB7
:200A2000C49882EB0E94130881E00E941308C49AC49888E10E94130880E00E9413080E9473
:200A40002908C49AC49889E10E94130880E00E9413080E942908C49A9927982F882797FD6C
:200A600090CFC4988FEB0E94130883E00E941308C49AC4988FE90E94130880E00E94130858
:200A8000C49AC49888E40E94130880E00E941308C49AC49889E40E94130880E00E94130855
:200AA000C49AC4988AE40E9413088FEF0E941308C49AC4988BE40E94130887E10E9413080B
:200AC000C49AC49880E40E94130880E00E941308C49AC49881E40E94130880E00E94130825
:200AE000C49AC4988CE40E9413088FEF0E941308C49AC4988DE40E94130887E10E941308C7
:200B0000C49AC49884E40E94130880E00E941308C49AC49885E40E94130888E10E941308D3
:200B2000C49AC4988FEB0E94130883E00E941308C49AC4988FE90E94130882E00E94130896
:200B4000C49AC49880E40E94130881E00E941308C49AC49882E80E94130882E30E94130899
:200B6000C49AC49883E80E94130880E40E941308C49AC4988AE40E94130888EF0E94130859
:200B8000C49AC49880E50E94130881E00E941308C49AC49886E40E94130882E10E9413085A
:200BA000C49AC49887E40E9413088CE00E941308C49AC49884E40E94130882E10E9413082B
:200BC000C49AC4988FEB0E94130883E00E941308C49AC4988FE90E94130883E00E941308F5
:200BE000C49AAEEEB3E00E94061B802D8F3F09F053C0AFEEB3E00E94061B802D8F3F09F0B7
:200C00004BC0A0EFB3E00E94061B802D8F3F09F043C0A1EFB3E00E94061B802D8F3FE1F536
:200C2000A2EFB3E00E94061B802D8F3FA9F5A3EFB3E00E94061B802D8F3F71F5C49884E427
:200C40000E94130880E00E941308C49AC49885E40E94130882E20E941308C49AC49882E499
:200C60000E94130889EF0E941308C49AC49883E40E94130881E00E941308C49AC49880E468
:200C80000E94130880E00E941308C49AC49881E40E94130881E04BC0AEEEB3E00E94061B40
:200CA000102DC49884E40E941308812F0E941308C49AAFEEB3E00E94061B102DC49885E4B6
:200CC0000E941308812F0E941308C49AA0EFB3E00E94061B102DC49882E40E941308812F3B
:200CE0000E941308C49AA1EFB3E00E94061B102DC49883E40E941308812F0E941308C49A6B
:200D0000A2EFB3E00E94061B102DC49880E40E941308812F0E941308C49AA3EFB3E00E94A0
:200D2000061B102DC49881E40E941308812F0E941308C49AC4988FEB0E94130883E00E9474
:200D40001308C49AC4988FE90E94130882E00E941308C49AC49884E50E94130880E10E9487
:200D60001308C49AC49886E50E94130880E00E941308C49AC49887E50E94130881E00E9473
:200D80001308C49AC4988FEB0E94130883E00E941308C49AC4988FE90E94130883E00E9433
:200DA0001308C49A01C00000C4988AE00E94130880E00E9413080E942908C49A80FDF3CFE9
:200DC000C4988FEB0E94130883E00E941308C49AC4988FE90E94130882E00E941308C49AF4
:200DE000C49884E50E94130884E10E941308C49AC49886E50E94130882EC0E941308C49AE4
:200E0000C49887E50E94130881E30E941308C49AC4988FEB0E94130883E00E941308C49ABD
:200E2000C4988FE90E94130883E00E941308C49A01C00000C4988AE00E94130880E00E945D
:200E400013080E942908C49A80FDF3CFC4988FEB0E94130883E00E941308C49AC4988FE922
:200E60000E94130882E00E941308C49AC49884E50E94130880E00E941308C49AC49886E574
:200E80000E94130880E00E941308C49AC49887E50E94130880E00E941308C49AC4988FEB44
:200EA0000E94130883E00E941308C49AC4988FE90E94130883E00E941308C49A01C0000027
:200EC000C4988AE00E94130880E00E9413080E942908C49A80FDF3CFC4988FE90E94130871
:200EE00084E00E941308C49A1F910895EF92FF920F931F93CF93DF937C01C4988FEB0E94F7
:200F0000130883E00E941308C49AC4988FE90E94130881E00E941308C49AC49889E10E94C3
:200F200013080E942908C49A882319F400E010E06AC0C4988AE30E9413080E942908C82F63
:200F4000DD270E9429089927982F8827C82BD92B0E942908082F11270E9429089927982FF1
:200F60008827082B192B045010400E9429080E94290881E0053F180720F4B801C7010E9406
:200F80003108C49AC4988FEB0E94130883E00E941308C49AC4988FE90E94130880E00E9416
:200FA0001308C49AC49880E40E9413088C2F0E941308C49AC49881E40E9413088D2F99276B
:200FC0000E941308C49A21978FEFCF3FD80711F4CFEFD7E1C4988CE40E9413088C2F0E9472
:200FE0001308C49AC4988DE40E9413088D2F99270E941308C49AC4988EE90E94130880E463
:201000000E941308C49AC801DF91CF911F910F91FF90EF9008951DB81EB88DB18DB98DB1B4
:2010200080658DB908958FB901C00000779BFDCF0895FC0107C080818FB901C00000779B84
:20104000FDCF3196615070408FEF6F3F780799F708951FB801C00000779BFDCF8FB199274E
:201060000895FC0107C01FB801C00000779BFDCF8FB18193615070408FEF6F3F780799F7A9
:2010800008959093C5018093C4010895FC018381860F80935602272F33278281820F8093FD
:2010A0005502418140935402E081E093530299278217930748F4842F8F5F809354028823E1
:2010C00019F4EF5FE093530280915602992770708617970798F4809155028F5F809355025D
:2010E000882361F4809154028F5F80935402882329F4809153028F5F809353020895DC0134
:20110000460F571F41505040FB010EC080819927982F88272181820F911DA80FB91FA817B3
:20112000B90708F411963296E417F50778F3E417F50751F480819927982F8827A80FB91F20
:20114000A817B90708F41196CD010895CF93DF9344E150E064ED72E080E090E00E947F083D
:20116000009719F4CFEFDFEF02C0C92FD82FCE01DF91CF9108950F931F93CF93DF93809109
:20118000D6029927982F88272091D702820F911D8C010451104048E050E060EE72E00E97A9
:2011A0000E947F08A80168EE72E00E947F08009719F4CFEFDFEF02C0C92FD82FCE01DF915C
:2011C000CF911F910F9108951092B1021092B0021092B3021092B2021092B5021092B402BB
:2011E0001092B7021092B6021092B9021092B80210927502109291021092AD0283E080936C
:20120000CC0180E094E09093CB018093CA010895BC011092CC0140E020E030E0E0EBF2E0CA
:20122000DF01808191818617970729F44093CC011D921C920895422F4F5F2F5F3F4F1296E6
:2012400032962530310569F74093CC010895BC011092CC0140E020E030E0E0EBF2E0DF01C5
:2012600080819181892B29F44093CC016D937C930895422F4F5F2F5F3F4F1296329625303E
:20128000310571F74093CC010895BC0180915A0290915B0208960E944608E0915A02F091EF
:2012A0005B02809153028087E0915A02F0915B02809154028187E0915A02F0915B0280918E
:2012C00055028287E0915A02F0915B028091560283870895292F382FC90108959C01AB0184
:2012E0001616170674F47093BD046093BC0480915102909152022817390719F0B9010E9409
:20130000231A08950F931F93CF93DF93C0915A02D0915B022CEF32E0309359022093580208
:201320003093520220935102833059F4898D8F70833009F019C688899989892B09F014C636
:2013400089C0823009F08AC08091C9018F5F8093C901882399F48091C8018F5F8093C801CD
:20136000882361F48091C7018F5F8093C701882329F48091C6018F5F8093C601109250026F
:2013800010924F021092BD041092BC04298D273011F0253041F48A8D8F5F8A8F883709F027
:2013A000E3C5198EE1C5222309F4DEC588899989892B09F44BC08A8D81508A8F8F3F09F09C
:2013C000D3C53B8D383029F02150223048F4353039F4198E80E8809357020E94E71273C44E
:2013E000353010F080E307C083E090E002C0880F991F3A95E2F78A8F8B8D8F5F8B8F898D83
:2014000099278F70907083309105D1F08430910544F48130910509F439C2029709F0A4C547
:201420000CC08630910509F4E1C38830910509F4DDC3049709F098C5D9C31092F50229C2F7
:2014400084E0809357020E94E71273C42F70233009F08AC588E08093570228C4890108520C
:2014600010408091D402853409F07EC58091D6029927382F22278091D702280F311D809167
:201480004F02909150028217930708F46DC53093500220934F028091DA0299278F7390705F
:2014A000892B09F061C58091DB02882309F05CC52091C2023091C3022115310531F4809109
:2014C000C4029091C502892BA1F08091E4029091E5028217930709F047C52091E602309188
:2014E000E7028091C4029091C5022817390709F03BC50E94A6088F5F9F4F09F035C580919C
:20150000DD028630D1F1813009F02EC58091E802883009F029C51092E8028091EA02909193
:20152000EB02EFEF873F9E0710F0099601C008969093EB028093EA028091E0029091E10271
:201540009093E5028093E4028091E2029091E3029093E7028093E6028091C2029091C302CB
:201560009093E1028093E0028091C4029091C5029093E3028093E202FBC40E94BB088F5FA0
:201580009F4F09F0F1C4CCE5D2E0E091EA02F091EB026091E8027091E9024091E002509126
:2015A000E1022091E2023091E30219C0898D8823A9F08C819D81E817F90781F48E819F810C
:2015C0006817790759F4888199814817590731F48A819B812817390709F474C16C9682E07C
:2015E000C439D80719F310F38091F5028F738230C9F42091EA023091EB023093CF012093F6
:20160000CE011092CC0140E0E0EBF2E0808191812817390709F47CC04F5F32964530B1F771
:201620004093CC018091F50282FD9EC484E1F80181A388E290E09093500280934F0280E587
:2016400080A39091EF028091F302838F4091EE028091F202828F468F3091ED028091F102DD
:20166000818F358F2091EC022093CC018091F002808F248F9F5F978F992361F4842F8F5FDC
:20168000868F882339F4832F8F5F858F882311F42F5F248F2091E8023091E9023093CF01DE
:2016A0002093CE018091EA029091EB02F801958B848B378B268B8091E0029091E1029093E8
:2016C000E5028093E4028091E2029091E3029093E7028093E6028091C2029091C30290934A
:2016E000E1028093E0028091C4029091C5029093E3028093E202F4C39093CC018CE1489F59
:20170000E0011124C45ADD4F23C01092CD01BCC01092CC01ECE5F2E0C0E0D0E090E020E0C8
:2017200030E0422F818D882339F3873039F4209721F0928D8A8D891708F4EF01942F9F5F14
:201740002F5F3F4F7C962330310559F79093CC01209709F409C4D0935B02C0935A0283E03F
:201760008A8F888F1E8A84E08F8B1B8E8091EA029091EB029D838C838091E8029091E90229
:201780009F838E838091E0029091E102998388838091E2029091E3029B838A8381E0898F59
:2017A0008091C6018C878091C7018D878091C8018E878091C9018F8781E090E0998B888B69
:2017C0008091EF028B878091EE028A878091ED0289878091EC02888781E090E00E94450904
:2017E0002091F402822F9927807F9070813591050CF44CC01092CC019091CD0140E0229545
:201800002F70332725503040220F331F220F331F34C0DB01AA53BD4FFD0196A9992309F415
:2018200074CF913011F44F5F28C09230F9F4FD0187A98430D9F49093CD014093CC0120AD4D
:201840003327322F222781AD9927282B392B3093CF012093CE01F1E02F3B3F0710F02EEB30
:2018600031E03B8B2A8B3D8B2C8B10C06A537D4FFB0187A9882331F0480F642F772762170B
:2018800073073CF29093CD014093CC0180E18093F5028091F50282608093F50282E080933B
:2018A000FC0284E08093FD0281E08093FE028EEB8093FF028CE290E09093500280934F02FC
:2018C00080E6BBC2D0935B02C0935A02109257028091F502482F552742FF03C0198E80E2B3
:2018E00055C28091F40282958F70880F880F8093CC0120914F0230915002281B310924519F
:2019000030403093500220934F02898D8F70823029F4CA018F7390704297F1F0232B21F470
:2019200043705070452BC1F09091EC028885981709F079C29091ED028985981709F073C219
:201940009091EE028A85981709F06DC29091EF028B85981709F067C28091F50284FF50C002
:20196000688979896115710509F44AC0CE010C960E9446082091F00280915302281709F0DF
:201980003FC09091F102809154029817C9F59091F20280915502981799F59091F30280917F
:2019A0005602981769F52C87809154028D87809155028E87809156028F878B8D8823C9F418
:2019C0002E89888D9A8D891B922F969596959695891B280F2E8B3F8987FD8195932F96954B
:2019E0009695891B830F8F8B269526952695280F288F81E080935702888D8A8F198A188A0D
:201A0000898D282F3327C9018F7090708430910509F4C1C1853091055CF482309105A9F1F0
:201A2000833091050CF0B7C0019709F09DC210C08630910509F4EFC1863091050CF4CBC159
:201A40008730910509F4EFC1089709F08DC298C18091570280FF88C283E0898F80E4809327
:201A60005702198A188A20914F02309150022115310509F417C182E480935702C9010E9434
:201A8000450910C11092CD015DC08091570280FF77C08091F5028F73823109F071C02091E2
:201AA000F402822F9927807F9070813591050CF44BC01092CC019091CD0140E022952F7095
:201AC000332725503040220F331F220F331F33C0DB01AA53BD4FFD0196A9992399F29130A4
:201AE00011F44F5F28C09230F9F4FD0187A98430D9F49093CD014093CC0120AD3327322FD4
:201B0000222781AD9927282B392B3093CF012093CE01F1E02F3B3F0710F02EEB31E03B8B51
:201B20002A8B3D8B2C8B10C06A537D4FFB0187A9882331F0480F642F77276217730744F26F
:201B40009093CD014093CC0183E0898F8091EC0288878091ED0289878091EE028A87809138
:201B6000EF028B8781E090E00E94450982E480935702198A188A1092500210924F0292C051
:201B800080E2809357020E94E712E0915A02F0915B02118E47CD8091F502992780FF2AC04D
:201BA00024FD28C088899989892B09F0DDC180914F029091500201960E9445092091570238
:201BC000822F80618093570280914F0290915002892B19F02261209357020E94E71281E0EA
:201BE00090E0998B888B88E0898F1B8E81E18093F5021CC185FF1EC02091FA023327322F02
:201C000022278091FB029927282B392B8091580290915902820F931F9093590280935802E1
:201C200080914F0290915002821B930B9093500280934F0220914F0230915002211531053A
:201C400059F0898D84FD08C080915702826080935702C9010E9445098091F6029927382F3A
:201C600022278091F702280F311D3093CF012093CE018C899D898217930710F0232B21F4A6
:201C80009093CF018093CE018091CE019091CF019B8B8A8B80915702992783709070892B92
:201CA00009F462C11092BD041092BC040E94E71280915702282F332725FF07C01092BD043B
:201CC0001092BC04198E84E192CF24FF0AC01092BD041092BC0481E090E0998B888B84E017
:201CE00083CF8091BC049091BD04892B09F120FF03C0198A188A04C0888999890097A1F4E7
:201D00002A893B898091BC049091BD042817390720F43093BD042093BC048091BC0490911D
:201D2000BD04998B888B04C09093BD048093BC041B8E80915102909152029093590280931D
:201D400058028091BC049091BD04892B59F088899989009739F088969093500280934F028F
:201D600088E10BC08091570281FFFEC088E290E09093500280934F0280E18093F5025CC04D
:201D80008091570280FFF0C0198E80E1809357020E94E712E9C080914F0290915002009786
:201DA00011F00E9445098091F5029091570280FF0BC090FF06C087E0898F1A8E198A188AA5
:201DC00019C086E0898F16C090FF1EC085E0898F198A188AC9C080914F02909150020097B2
:201DE00011F00E9445098091F50280FF0DC087E0898F1A8E81E090E00E94450980E1809342
:201E000057020E94E7120FC080914F0290915002892B49F4A9C08091570280FFA5C087E01B
:201E2000898F1A8EA1C080E1F80181A388E290E09093500280934F0280E58093F4028885D5
:201E40008093F00289858093F1028A858093F2028B858093F3028C858093EC028D85809304
:201E6000ED028E858093EE028F858093EF0286E08093DD028C819D819093E9028093E802B7
:201E80008E819F819093EB028093EA028091C2029091C3029093E1028093E0028091C40277
:201EA0009091C5029093E3028093E202888199819093E5028093E4028A819B819093E702E2
:201EC0008093E602898D84FF05C01092F7021092F60206C081E08093F6028EEB8093F702BD
:201EE00080E48093DC0280914F0290915002892F99278093D60280914F028093D702109265
:201F0000FB021092FA021092F9021092F8020E94BB08809590959093F9028093F80285E4BA
:201F20008093D4021092D5021092DB021092DA028091C4019091C50101969093C5018093F2
:201F4000C401292F33272093D8028093D9021092DF021092DE020E94A608809590959093DD
:201F6000DF028093DE0204C01092500210924F0210925702DF91CF911F910F9108950F9388
:201F80001F93AB01BC0180E090E00E947F08092F182FC8011F910F910895EF92FF920F9344
:201FA0001F93CF93DF938C012091CA013091CB012F5F3F4F8DE72030380710F020E030E1D5
:201FC000432F522FECE5F2E0A0E0818D882329F0848195818417950759F3AF5F7C96A33088
:201FE000A1F73093CB012093CA011092CC01E0E0F0E090E041E0ACE5B2E0ED01898D8823DA
:2020000021F49093CC01FD0114C0873041F4309729F0ED019A8D828D891708F4FD01842FAC
:202020008F5F5C96843019F0942F482FE6CF4093CC01309781F182E0818F8091C6018487E6
:202040008091C70185878091C80186878091C90187878EEB91E0938B828B958B848B81E026
:2020600090E0918B808B138E81E0828F83E0808F168A80E1878BE32EF22EF582E482778329
:202080006683D8018D919C9191838083E8018A819B8193838283CF01DF91CF911F910F9101
:2020A000FF90EF900895DF92EF92FF920F931F93CF93DF938C017B0110922C02DD2471E09F
:2020C000C0EDD1E060912E022881398121153105E9F04A815B8141155105C1F0D8018D91DE
:2020E0009C918217930791F4F801828193818417950761F4D0922C02DE011496F70186E0E8
:2021000001900D928150E1F76A8766C0872F8F5F2B96893019F0D72E782FD6CF10922C0287
:2021200040E050E020ED31E0E90188819981892B39F48A819B81892B19F450932C0239C051
:202140004F5F255F3F4F483011F0542FEDCF40932C02483071F510922F0210922D021092E2
:202160002C02B0912E02CB2FDD2770E0A0E040E050E0EAEDF1E060819E01261B31098A2F46
:202180009927821793071CF4AB2FA61B742F4F5F5F4F3B964830510571F770932D02A09336
:2021A0002F0270932C028BE0789FE0011124C053DE4FF80180819181A281B381FE0181936F
:2021C0009193A193B193D70186E00D9001928150E1F780912E028A87DF91CF911F910F91DA
:2021E000FF90EF90DF900895CF93DF9380914F02909150028A9728F41092500210924F02F8
:202200009BC01092500210924F02C6ECD2E08091DA029091DB0221E08030920729F08050FA
:20222000924009F089C06CC02091EC023091ED028091C2029091C3022817390709F07CC0A0
:202240002091EE023091EF028091C4029091C5022817390709F070C0BE016A5E7F4FCE01A0
:202260004C960E94531080E092E09093DB028093DA02DE019096FE01769686E001900D9210
:202280008150E1F7ACEDB2E0EEEBF1E086E001900D928150E1F7ACECB2E0EEEBF1E086E047
:2022A00001900D928150E1F7E6ECF2E0DF01909686E00D9001928150E1F78091E202909146
:2022C000E3029FA38EA38091E4029091E50299A788A78091C2029091C3029D8F8C8F809125
:2022E000C4029091C5029F8F8E8F88E096E09D878C878AE290E09093500280934F021CC03F
:202300002091EC023091ED028091C2029091C3022817390789F42091EE023091EF02809153
:20232000C4029091C5022817390731F46CED72E082EE92E00E945310DF91CF910895CF93EA
:20234000DF93C6ECD2E06091E4027091E5022FEF6F3F720789F48091E6029091E7028F5F35
:202360009F4F51F4DE01E6E7F0E086E001900D92815009F4CFC0FACF8091BE029091BF023F
:20238000AB01482359232091C2023091C3028223932348175907A1F4E091E602F091E7023D
:2023A0008091C0029091C102AF01482359232091C4023091C502822393234817590789F03D
:2023C0008091BA029091BB0290932902809328028091BC029091BD0290932B0280932A0289
:2023E00008C07093290260932802F0932B02E0932A0210922C026091280270912902409193
:202400002A0250912B0220E030E080ED91E0FC01808191816817790731F4828193814817EA
:20242000590709F46DC02F5FCF010B96283011F0322FEDCF20932C02283009F063C046E022
:2024400050E06FEF70E086EC92E00E942C1AE6EEF2E086E0DF011D928A95E9F77A97AEEB8E
:20246000B1E086E00D9001928150E1F7ACEDB2E0EEEBF1E086E001900D928150E1F7809167
:202480002802909129029FA38EA380912A0290912B029093EF028093EE028091C2029091BB
:2024A000C3029D8F8C8F8091C4029091C5029093E5028093E40280E091E09093DB0280936A
:2024C000DA029093D5028093D40288E090E09093D7028093D60286E08093D80284E08093B4
:2024E000D90288E096E09093D3028093D2028CEF92E090935902809358028AE290E01EC0B2
:2025000030932C02A6ECB2E0349686E001900D928150E1F7ACECB2E0EEEBF1E086E00190D2
:202520000D928150E1F788E090E09093D3028093D20280914F02909150020E9690935002AE
:2025400080934F02DF91CF91089580912E028F5F80932E0210922C0290E07BE0482F5527AA
:2025600060E0979FF0011124E053FE4F8081918122813381822B932B892B59F082859A01CB
:20258000281B31092837310524F01082118212821382962F9F5F692F983018F390932C0248
:2025A000089510922C0290E02BE080E0929FF0011124E053FE4F10821182128213828F5FC0
:2025C000982F883098F388E080932C020895E0915A02F0915B0284819581845C9247D9F45F
:2025E00080915702992786FD19C081FF17C060E080915802909159020E944414813071F0CB
:202600008CE790E090935902809358026DE070E00E946E09089580E280935702089584ECBE
:2026200092E70E9427090895C09A00C0C0980895882311F0939A01C09398929A8C988D9869
:202640008E988F98C09A00C0849B02C080E101C080E0859980628699806487998068C0984D
:2026600000C0C09A00C084998160859982608699846087998860C09899270895CF93DF93EE
:20268000662311F0939A01C0939892988C9A8D9A8E9A8F9A979896989598949887FD979A64
:2026A000C82FDD27C6FD969AC5FD959AC4FD949A0E9414139798969895989498C3FD979ADC
:2026C000C2FD969AC1FD959AC0FD949A0E941413949A959A969A979ADF91CF910895CF93DD
:2026E000DF9305C021968FEFCF3FD80729F080E00E94181387FDF6CF80E190E00197F1F7A1
:2027000080E00E9418139927DF91CF9108950E946F13992708951F93182F0E946F1360E081
:20272000812F0E943E131F91089582E00E948B13089581E00E948B130895662311F48058C6
:2027400001C080540E948B1308951F93182F0E946F131A3049F4803410F480E401C080E026
:2027600080580E948B1304C061E0812F0E943E131F910895CF93DF93EC0102C00E94A5136F
:2027800089918823D9F7DF91CF9108951F93182F0E946F1361E0812F0E943E131F910895E9
:2027A000CF93DF93EC0102C00E94A513FE01219684918823C9F7DF91CF910895FF920F9366
:2027C0001F93F82E8B9A8A9AB89A8C9A8D9A8E9A8F9A80E09AEF0197F1F7959A949A0E9480
:2027E000141380E09EE40197F1F70E94141300E011E0C8010197F1F70E941413C801019743
:20280000F1F794980E941413C8010197F1F788E20E948B1388E00E948B130E94991386E08C
:202820000E948B138F2D0E948B131F910F91FF90089587B983E886B9369A3699FECF84B155
:2028400095B160E020E030E040E050E0369A3699FECF84B195B1AA27BB27280F391F4A1F00
:202860005B1F6F5F643091F73798CA01B90124E030E040E050E00E94DC1ADA01C901089562
:20288000E0E0F0E009940895DF92EF92FF920F931F93CF93DF93CDB7DEB724970FB6F8949E
:2028A000DEBF0FBECDBF9C838B836093BE049A8389836AE870E0CE0103960E94711A8C0153
:2028C000DD2435C080E090E094C0D394ED2DFF27EE0FFF1FEE0FFF1FEC58FE4F808191815D
:2028E000892B29F56CE870E0CE0101960E94711A8C01DD240DC0D394ED2DFF27EE0FFF1FB2
:20290000EE0FFF1FEC58FE4F80819181892BD1F2ED2DFF27EE0FFF1FEE0FFF1FEC58FE4F7A
:20292000B801808191810E94331A892B21F7ED2CFF24F701EE0FFF1FEE0FFF1FEC58FE4F15
:20294000B801808191810E94331A892B09F0BDCFDD24F701EE0FFF1FEE0FFF1FEC58FE4FC3
:202960006FE870E0808191810E94511A892BC1F481E0D816A9F46CE870E0CE0103960E948D
:20298000711A8C0168E970E08FEB94E00E945A1AB8018FEB94E00E945A1A22E0D22ED9CF13
:2029A00069E970E0CE0103960E94711A0D2D112740E050E060E070E00E94F618000F111F9F
:2029C0000A5E1A4FF80171836083D394F3E0FD1508F0BFCFEE0CFF1CEE0CFF1C84E791E07E
:2029E000E80EF91EF70182819381FC01099581E090E024960FB6F894DEBF0FBECDBFDF91DE
:202A0000CF911F910F91FF90EF90DF900895CF93DF93C0EDD4E06CE870E0CE010E94461A42
:202A20008091BE04882321F0CE010E941B030BC0FE0101900020E9F73197E05DF440BF0124
:202A4000CE010E946E091092D004DF91CF9108958091BE04882341F46BE970E080ED94E073
:202A60000E945A1A0E94071567EA70E080ED94E00E945A1A0E9407150895EF92FF920F93DB
:202A80001F93CF93DF93CDB7DEB764970FB6F894DEBF0FBECDBF85B342E050E08E010F5FCE
:202AA0001F4FB80199270E94891A66EB70E0CE010A960E945A1AF80101900020E9F77F01BA
:202AC0000894E108F108E01AF10A08C068EB70E0C8010E94461A0894E11CF11C8E01065FB3
:202AE0001F4FF8E0EF16F1048CF3BE016F5F7F4FC8010E94461AB80180ED94E00E945A1A41
:202B00000E94071564960FB6F894DEBF0FBECDBFDF91CF911F910F91FF90EF9008956AEB96
:202B200070E080ED94E00E945A1A0E940715089561EE70E080ED94E00E945A1A0E9407159F
:202B400008950F931F93CF93DF93CDB7DEB726970FB6F894DEBF0FBECDBF80911605909146
:202B60001705059730F48091160590911705892B19F40E94981516C08091160590911705C1
:202B80008D5F0E9419144AE050E08E010F5F1F4FB8010E94891AB80180ED94E00E945A1A07
:202BA0000E94071526960FB6F894DEBF0FBECDBFDF91CF911F910F9108958091160590914A
:202BC0001705059730F48091160590911705892B19F40E949815089529B3809116059091DA
:202BE00017053327019702C0359527958A95E2F720FF03C06EEE70E002C068EB70E080ED27
:202C000094E00E945A1A0E940715089560EF70E080ED94E00E945A1A0E94071508958091CD
:202C2000160590911705019711F460E007C08091160590911705029779F461E080E00E94E6
:202C40009D13AFEBB4E0FD0101900020E9F73197EA1BFB0B719718F00E9498150895CD016A
:202C60000E94BA130E94061608958091160590911705019711F460E007C080911605909130
:202C80001705029749F461E080E00E949D1384EF90E00E94BA1302C00E9499130E9406162F
:202CA00008958CE00E94DE130E9499130E94061608958091160590911705892BB1F18091FF
:202CC000160590911705099780F58091180590911905029750F58091180590911905892B1B
:202CE00089F445B320911605309117052150304081E090E002C0880F991F2A95E2F7809546
:202D000048230FC045B320911605309117052150304081E090E002C0880F991F2A95E2F77D
:202D2000482B45BB0E94061608950E9498150895CF92DF92EF92FF920F931F93CF93DF93CD
:202D4000CDB7DEB724970FB6F894DEBF0FBECDBFF0EDEF2EF4E0FF2E68E970E0C7010E9452
:202D60005A1AACEFB3E00E94061B802D4AE050E08E010F5F1F4FB80199270E94891A43E09B
:202D800050E0B801C7010E94611AE9E9CE2EE0E0DE2EB601C7010E94461AADEFB3E00E9479
:202DA000061B802D4AE050E0B80199270E94891A43E050E0B801C7010E94611AB601C701BD
:202DC0000E94461AAEEFB3E00E94061B802D4AE050E0B80199270E94891A43E050E0B8012D
:202DE000C7010E94611AB601C7010E94461AAFEFB3E00E94061B802D4AE050E0B8019927F9
:202E00000E94891A43E050E0B801C7010E94611A0E94071524960FB6F894DEBF0FBECDBFBD
:202E2000DF91CF911F910F91FF90EF90DF90CF900895CF92DF92EF92FF920F931F93CF935F
:202E4000DF93CDB7DEB724970FB6F894DEBF0FBECDBFB0EDEB2EB4E0FB2E68E970E0C70109
:202E60000E945A1AA4EFB3E00E94061B802D4AE050E08E010F5F1F4FB80199270E94891A23
:202E800043E050E0B801C7010E94611AA9E9CA2EA0E0DA2EB601C7010E94461AA5EFB3E087
:202EA0000E94061B802D4AE050E0B80199270E94891A43E050E0B801C7010E94611AB601E2
:202EC000C7010E94461AA6EFB3E00E94061B802D4AE050E0B80199270E94891A43E050E025
:202EE000B801C7010E94611AB601C7010E94461AA7EFB3E00E94061B802D4AE050E0B80107
:202F000099270E94891A43E050E0B801C7010E94611A0E94071524960FB6F894DEBF0FBE88
:202F2000CDBFDF91CF911F910F91FF90EF90DF90CF900895CF92DF92EF92FF920F931F9334
:202F4000CF93DF93CDB7DEB724970FB6F894DEBF0FBECDBF90EDE92E94E0F92E68E970E0B2
:202F6000C7010E945A1AA8EFB3E00E94061B802D4AE050E08E010F5F1F4FB80199270E94F9
:202F8000891A43E050E0B801C7010E94611A89E9C82E80E0D82EB601C7010E94461AA9EFB6
:202FA000B3E00E94061B802D4AE050E0B80199270E94891A43E050E0B801C7010E94611A05
:202FC000B601C7010E94461AAAEFB3E00E94061B802D4AE050E0B80199270E94891A43E099
:202FE00050E0B801C7010E94611AB601C7010E94461AABEFB3E00E94061B802D4AE050E08B
:20300000B80199270E94891A43E050E0B801C7010E94611A0E94071524960FB6F894DEBF9B
:203020000FBECDBFDF91CF911F910F91FF90EF90DF90CF9008958091160590911705892B81
:2030400011F180911C0590911D05892BE1F080911805909119058F3F9105A9F080911A05DA
:2030600090911B058F3F910571F080911C0590911D058F3F910539F08091160590911705DF
:203080008F3F910519F40E94981508950E9406168091160590911705ACEFB3E0082E0E94A6
:2030A0000E1B8091180590911905ADEFB3E0082E0E940E1B80911A0590911B05AEEFB3E0A9
:2030C000082E0E940E1B80911C0590911D05AFEFB3E0082E0E940E1B08958091160590915E
:2030E0001705892B11F180911C0590911D05892BE1F080911805909119058F3F9105A9F09A
:2031000080911A0590911B058F3F910571F080911C0590911D058F3F910539F0809116054B
:20312000909117058F3F910519F40E94981508950E9406168091160590911705A4EFB3E0A8
:20314000082E0E940E1B8091180590911905A5EFB3E0082E0E940E1B80911A0590911B0568
:20316000A6EFB3E0082E0E940E1B80911C0590911D05A7EFB3E0082E0E940E1B08958091D9
:20318000160590911705892B39F080911C0590911D058F3F910519F40E94981508950E9486
:2031A00006168091160590911705A8EFB3E0082E0E940E1B8091180590911905A9EFB3E0C7
:2031C000082E0E940E1B80911A0590911B05AAEFB3E0082E0E940E1B80911C0590911D05DB
:2031E000ABEFB3E0082E0E940E1B08953F924F925F926F927F928F929F92AF92BF92CF920A
:20320000DF92EF92FF920F931F93CF93DF938C012B01EA016115710519F0FB019183808357
:20322000209749F0CE010297839728F060E070E080E090E0F6C0F801E1908F018E2D992779
:203240000E94F71A892BB9F7FDE2EF1631F4F801E1908F0181E0382E07C0FBE2EF1619F4D7
:20326000F801E1908F013324209719F0C031D105C1F4F0E3EF1679F4F8018081883711F0C2
:20328000883549F4F801E1800E5F1F4FF2E03F2AC0E1D0E006C0209721F480E3E816E9F4A3
:2032A00027C0C830D10531F1C930D10524F4C230D10531F50CC0CA30D10589F0C031D10586
:2032C000F9F4A12CB12CC12CB8E0DB2E26C0A12CB12CC12CA0E4DA2E20C0CAE0D0E0FCEC9E
:2032E000AF2EFCECBF2EFCECCF2EFCE0DF2E15C0C8E0D0E0A12CB12CC12CE0E1DE2E0DC0F0
:203300009E01442737FD4095542F60E070E080E090E80E94BA1A59016A0120E030E040E044
:2033200050E060E03E01882477FC8094982C70EDF72EFE0CE9E0EF1570F48E2D81548A31DF
:2033400018F499ECF92E06C08E2D81568A3150F589EAF82EFE0C8F2D99278C179D0714F5EE
:2033600067FD1CC0A216B306C406D506B0F0CA01B901A40193010E941D1B9B01AC012F0D3A
:20338000311D411D511D2130F0E03F07F0E04F07F0E85F0710F461E001C06FEFF801E1907A
:2033A0008F01C5CF4114510481F0662331F001501040F2011183008308C031FE1AC0025056
:2033C0001040F2011183008314C067FF12C030FE05C020E030E040E050E804C02FEF3FEF1C
:2033E0004FEF5FE782E290E090931F0580931E0516C030FE08C050954095309521953F4F69
:203400004F4F5F4F0CC057FF0AC082E290E090931F0580931E052FEF3FEF4FEF5FE7CA0188
:20342000B901DF91CF911F910F91FF90EF90DF90CF90BF90AF909F908F907F906F905F90FD
:203440004F903F900895FB01DC0102C001900D9241505040D8F70895DC0101C06D9341509A
:203460005040E0F70895FB01DC018D9181341CF08B350CF4805E619161341CF06B350CF4BF
:20348000605E861B611189F3990B0895FB01DC010D900020E9F7119701900D920020E1F758
:2034A0000895FB01DC018D91019080190110D9F3990B0895FB01DC0101900D920020E1F72F
:2034C0000895FB01DC010D900020E9F711974150504028F0019000200D92C9F708951C929D
:2034E0000895FC01A081B181AD01109681F03D91FB01019003160110E1F7C9F7002011F4D8
:20350000D00102C01E921196FC01A083B183CA010895FB019F01E8944230C4F04532B4F4A8
:203520004A3029F497FB1EF4909581959F4F642F77270E943C1B805D8A330CF0895D81936D
:20354000CB010097A1F716F45DE251931082C9010C94AA1ADC01FC01672F71917723E1F79F
:20356000329704C07C916D9370836291AE17BF07C8F30895A1E21A2EAA1BBB1BFD010DC0B7
:20358000AA1FBB1FEE1FFF1FA217B307E407F50720F0A21BB30BE40BF50B661F771F881FC7
:2035A000991F1A9469F760957095809590959B01AC01BD01CF01089597FB092E05260ED0CB
:2035C00057FD04D0D7DF0AD0001C38F450954095309521953F4F4F4F5F4F0895F6F790952D
:2035E0008095709561957F4F8F4F9F4F0895911121C0803251F08A3041F08C3031F08D3089
:2036000021F0893011F08B3099F70895E199FECFBFBBAEBBE09A11960DB20895E199FECF09
:20362000BFBBAEBB0DBA11960FB6F894E29AE19A0FBE0895992788270895629FD001739F97
:20364000F001829FE00DF11D649FE00DF11D929FF00D839FF00D749FF00D659FF00D992741
:20366000729FB00DE11DF91F639FB00DE11DF91FBD01CF0111240895AA1BBB1B51E107C09D
:20368000AA1FBB1FA617B70710F0A61BB70B881F991F5A95A9F780959095BC01CD01089539
:2036A000FFCF0D0A004E414B20434F4D4D414E440D0A006431023102FFFFFFFFFFFF4E41C2
:2036C0004B20434F4D4D414E440D0A0020000D0A0057524954454C434400002E004E414BCC
:2036E00020434F4D4D414E44005265616420446174617368656574005300300075433A20E7
:2037000041544D65676133320D0A5665723A20312E30330D0A4E49433A20454E4332384A00
:203720003630004E414B20415247554D454E5400310041434B002020202020202020202086
:2037400020202020202000524553455400474554504F525400534554504F525400474554F0
:203760004144430056455253494F4E00534554495000474554495000534554475700474547
:20378000544757005345544D41534B004745544D41534B00494E49544C434400434C4541F7
:2037A000524C434400474554535441545553003F0048454C5000050140140B01DD1513014C
:2037C00059161B01A11522018F152A011B183001981636016D183C0119174201BF184A0116
:2037E0009A17520151165A0135168F000F1663013D156D0128156F01281500000000FFFFF8
:20380000FFFFFFFFFFFFFFFFFFFFFFFFFFFFFFFFFFFFFFFFFFFFFFFFFFFFFFFFFFFFFFFFC8
:20382000FFFFFFFFFFFFFFFFFFFFFFFFFFFFFFFFFFFFFFFFFFFFFFFFFFFFFFFFFFFFFFFFA8
:20384000FFFFFFFFFFFFFFFFFFFFFFFFFFFFFFFFFFFFFFFFFFFFFFFFFFFFFFFFFFFFFFFF88
:20386000FFFFFFFFFFFFFFFFFFFFFFFFFFFFFFFFFFFFFFFFFFFFFFFFFFFFFFFFFFFFFFFF68
:207800000C942A3C0C94473C0C94473C0C94473C0C94473C0C94473C0C94473C0C94473C6D
:207820000C94473C0C94473C0C94473C0C94473C0C94473C0C94473C0C94473C0C94473C30
:207840000C94473C0C94473C0C94473C0C94473C0C94473C11241FBECFE5D8E0DEBFCDBFD2
:2078600010E0A0E6B0E0E0E9FBE702C005900D92A036B107D9F710E0A0E6B0E001C01D928D
:20788000A036B107E1F70E94493C0C94C73D0C94003CFF920F931F93CF93DF93C19A0E9425
:2078A0009D3DB19930C107B600FCFDCF99E084ECE1E0F0E0082E90935700E895FF240E94C2
:2078C000933D982F863631F48DE00E94983D71E0F72EF5CF8F3449F5AEEEB3E00E94B33D50
:2078E000802D0E94983DAFEEB3E00E94B33D802D0E94983DA0EFB3E00E94B33D802D0E947B
:20790000983DA1EFB3E00E94B33D802D0E94983DA2EFB3E00E94B33D802D0E94983DA3EF4D
:20792000B3E00E94B33D802DEBC08D3459F50E94933DAEEEB3E0082E0E94BB3D0E94933DD8
:20794000AFEEB3E0082E0E94BB3D0E94933DA0EFB3E0082E0E94BB3D0E94933DA1EFB3E02E
:20796000082E0E94BB3D0E94933DA2EFB3E0082E0E94BB3D0E94933DA3EFB3E0082E0E9462
:20798000BB3D9DCF853689F400E010E083E007B600FCFDCFF80180935700E89500581F4FED
:2079A00098E70030190798F363C0813611F489E5A7C0813421F0853511F0873791F40E9453
:2079C000933D6F2D0E94A23D082F0E94933D6F2D0E94A23D1127102F00279927082B192B1F
:2079E00047C08D36A1F48CE30030180720F08FE30E94983D3DC007B600FCFDCF25E0C80121
:207A0000880F991FFC0120935700E89531C08334D1F40E94933D6F2D0E94A23D9927982F10
:207A20008827C82BD92B07B600FCFDCF21E0C801880F991F0E01FC0120935700E89511243A
:207A40000F5F1F4F15C0833641F40E94933D6F2D0E94A23DC82FDD270BC0803549F08C3484
:207A600039F08857823010F0943521F40E94933D8DE046C0903711F483E542C0943729F46B
:207A80008FE70E94983D80E03BC0953471F407B600FCFDCF81E180935700E8958DE00E9493
:207AA000983DE0E0F0E009950ACF933741F482E00E94983D85E90E94983D8EE121C0963512
:207AC00029F481E30E94983D80E31AC09335A1F48EE40E94983D85E40E94983D84E50E9440
:207AE000983D8DE20E94983D89E40E94983D8FE20E94983D8FE404C09B3109F4E0CE8FE3DF
:207B00000E94983DDCCE07B600FCFDCF81E180935700E895E0E0F0E00995DF91CF911F91C8
:207B20000F91FF9008955F9BFECF8CB1992708958CB95E9BFECF5E9A089580E189B988E16C
:207B40008AB90895982F662311F49927089582ED8927982F9295990F907E8695869586957F
:207B6000892B99270895E199FECFBFBBAEBBE09A11960DB20895E199FECFBFBBAEBB0DBA5C
:107B800011960FB6F894E29AE19A0FBE0895FFCFCE
:00000001FF
